:020000040000FA
:02000000002AD4
:0800080049288207313432342B
:10001000333441343434353436344234373438347C
:10002000393443342A34303423344434C826DC266B
:10003000CD26D2264530E1265230E1265230E12647
:100040004F30E1265230E126D7265030E1264130AC
:10005000E1265230E1264130E1264D30E12645309F
:10006000E1265430E1265230E1264F30E12653306C
:10007000E12608000610861006118611A125060843
:10008000AC00F030AC05AC0E0F302C02031D3A284A
:1000900008000B1CFF29AD010610861406158615F5
:1000A000061E8928AD0A861E8928AD0A061F8928E2
:1000B000AD0A861F8928AD0A061486100615861516
:1000C000061E8928AD0A861E8928AD0A061F8928C2
:1000D000AD0A861F8928AD0A0614861406118615F6
:1000E000061E8928AD0A861E8928AD0A061F8928A2
:1000F000AD0A861F8928AD0A0614861406158611D6
:10010000061E8928AD0A861E8928AD0A061F892881
:10011000AD0A2D080520AE002A302E02031D9328BB
:100120000130B500FD2923302E02031D9928B501A9
:10013000FD29B5080319FD29B408031D6B294130B9
:100140002E02031DD328C826DC26CD26D226543005
:10015000E1264530E1264D30E1265030E12645309C
:10016000E1265230E1264130E1265430E126553077
:10017000E1265230E1264130E126E126D7264D30F6
:10018000E1264130E1265830E1264930E1264D3064
:10019000E1264130E1263D30E1260130B400AF01D7
:1001A0004130B000FD2942302E02031D0729C82628
:1001B000DC26CD26D2265430E1264530E1264D30CE
:1001C000E1265030E1264530E1265230E12641302B
:1001D000E1265430E1265530E1265230E126413007
:1001E000E126E126D7264D30E1264930E1264E3082
:1001F000E1264930E1264D30E1264130E1263D300F
:10020000E1260130B400AF014230B000FD29433097
:100210002E02031D3829C826DC26CD26D2264C30D6
:10022000E1265530E1264D30E1264930E1264E30B9
:10023000E1264F30E1265330E1264930E1264430B3
:10024000E1264130E1264430E126D7264D30E12633
:100250004130E1265830E1264930E1264D30E12693
:100260004130E1260130B400AF014330B000FD2938
:1002700044302E02031DFD29C826DC26CD26D226B9
:100280004C30E1265530E1264D30E1264930E1265B
:100290004E30E1264F30E1265330E1264930E12649
:1002A0004430E1264130E1264430E126D7264D3066
:1002B000E1264930E1264E30E1264930E1264D3035
:1002C000E1264130E1263D30E1260130B400AF01A6
:1002D0004430B000FD292F302E02031CFD293B3095
:1002E0002E020318FD29AF0A01302F02031D7D29BC
:1002F0002E08B1003108E126FD2902302F02031D2E
:1003000086292E08B2003208E126FD2903302F028B
:10031000031DFD292E08B3003308E126B225C801CC
:100320006430C70030303102C60058264F08B7008D
:100330005008B600C8010A30C70030303202C6008B
:1003400058264F08B7075008B60730303302B707B2
:100350000318B60A41303002031DB929B401AF01B8
:100360000430E9263608EE260530E9263708EE2661
:10037000E62942303002031DC829B401AF0106301E
:10038000E9263608EE260730E9263708EE26E62964
:1003900043303002031DD729B401AF010030E926F4
:1003A0003608EE260130E9263708EE26E6294430E5
:1003B0003002031DFD29B401AF010230E9263608E1
:1003C000EE260330E9263708EE26E629C826DC2685
:1003D000CD26D2264330E1264130E1264D30E126BC
:1003E0004230E1264930E1264F30E1262030E12637
:1003F0004F30E1264B30E126FD293A200B10090051
:100400008316031384309F0005308700880189011B
:10041000FF308500F0308600203081008312A12655
:10042000A0010610861006118611E03087008801B1
:100430008901AF01B401B5018B013A200030E926F2
:100440000027FF3C031D462A0130E9260027FF3C18
:10045000031D462A0230E9260027FF3C031D462AD9
:100460000330E9260027FF3C031D462A0030E92619
:100470000230EE260130E926EE30EE260230E92683
:100480000030EE260330E926FA30EE260430E92665
:100490000027FF3C031D6E2A0530E9260027FF3C9C
:1004A000031D6E2A0630E9260027FF3C031D6E2A35
:1004B0000730E9260027FF3C031D6E2A0430E92699
:1004C0000030EE260530E9266430EE260630E926B7
:1004D0000030EE260730E9260A30EE268B158B1702
:1004E000B5080319752A6300702A871DBF2B0A30CF
:1004F00010270D301027413010273D3010274D3088
:100500001027413010275830102720301027543042
:100510001027453010274D3010270A3010270D3096
:100520001027423010273D3010274D30102749301A
:1005300010274E3010272030102754301027453018
:1005400010274D3010270A3010270D301027433068
:1005500010273D3010274D301027413010275830DC
:100560001027203010274C301027553010274D30E1
:1005700010270A3010270D301027443010273D3047
:1005800010274D301027493010274E3010272030CB
:1005900010274C301027553010274D3010270A30C7
:1005A00010270D301027453010273D3010275330CD
:1005B0001027413010274C30102749301027523077
:1005C00010270A3010270D3010272227B8001027D7
:1005D00041303802031D112B203010274D301027D9
:1005E0004130102758301027203010275430102762
:1005F000453010274D301027503010274530102738
:100600005230102741301027543010275530102712
:1006100052301027413010273D3010274130B000B4
:10062000912B42303802031D3A2B203010274D30D9
:100630001027493010274E30102720301027543013
:100640001027453010274D301027503010274530E7
:1006500010275230102741301027543010275530C2
:10066000102752301027413010273D3010274230DC
:10067000B000912B43303802031D632B203010272C
:100680004D301027413010275830102720301027C8
:100690004C301027553010274D3010274930102787
:1006A0004E3010274F301027533010274930102775
:1006B0004430102741301027443010273D30102798
:1006C0004330B000912B44303802031D8C2B203076
:1006D00010274D301027493010274E30102720307A
:1006E00010274C301027553010274D301027493037
:1006F00010274E3010274F30102753301027493025
:1007000010274430102741301027443010273D3047
:1007100010274430B000912B45303802031DE52AE4
:10072000702A2227C10030304102031C912B3A303D
:1007300041020318912B410810272227C2003030B4
:100740004202031C9D2B3A30420203189D2B4208A3
:1007500010272227C30030304302031CA92B3A3054
:1007600043020318A92B43081027B701B601430819
:10077000B3004208B2004108B1008F21702AB401D1
:10078000AF010030E9260027A8000130E926002744
:10079000A9000230E9260027AA000330E926002735
:1007A000AB000430E9260027A4000530E926002725
:1007B000A5000630E9260027A6000730E926002715
:1007C000A700260824020319EA2B26082402031C8A
:1007D000F22B102C270825020319F22B27082502DB
:1007E0000318102C16205430E1264530E1264D30F8
:1007F000E1265030E126C62530302707E126C62500
:100800000430E9260030EE260530E9266430EE2675
:100810000630E9260030EE260730E9260A30EE26BB
:100820002A0828020319192C2A082802031C212C43
:10083000392C2B0829020319212C2B082902031813
:10084000392C16204C30E1265530E1264D30E1267A
:10085000C6250030E9260230EE260130E926EE30CA
:10086000EE260230E9260030EE260330E926FA3083
:10087000EE26C826DC26CD2683309F004926400878
:10088000CA003F08CB003D30C90076264C08C7009F
:100890004D08C8007D30C60058264F08C0005008DB
:1008A000BF00102687173F082A0203195C2C3F0857
:1008B0002A0203188713602C40082B0203188713A1
:1008C000C826DC26CD26D2264C30E1265530E1263E
:1008D0004D30E1264930E1264E30E1264F30E12609
:1008E0005330E1264930E1264430E1264130E1260B
:1008F0004430E1263D30E12630304507E1263030F6
:100900004107E12630304207E12630304307E12637
:100910008B309F0049264008A1003F08A200031D1C
:10092000962C52302102031CC42C962C5230A1026A
:10093000031CA2030310A20CA10C0310A20CA10C17
:100940002108C0002208BF0010262B30A300071783
:100950003F0826020319B12C3F082602031807138B
:10096000B52C400827020318071387163F082402F6
:100970000319BF2C3F082402031C8712C32C400814
:100980002502031C8712CF2C0310A10C0310A10C0D
:100990002108143CBE00C9252D30A3000713D7261B
:1009A0005430E1264530E1264D30E1265030E12635
:1009B0004530E1265230E1264130E1265430E1262F
:1009C0005530E1265230E1264130E1263D30E12626
:1009D0002308E12630304107E12630304207E12686
:1009E00030304307E126C625C625C826DC26CD269D
:1009F000D2264C30E1264D30E1264130E1265830F8
:100A0000E1263D30E1262908C0002808BF00102655
:100A100030304107E12630304207E12630304307CD
:100A2000E1262030E1264D30E1264930E1264E30E6
:100A3000E1263D30E1262B08C0002A08BF00102621
:100A400030304107E12630304207E126303043079D
:100A5000E126D7265430E1264D30E1264130E1260B
:100A60005830E1263D30E1262508C0002408BF00AB
:100A7000102630304107E12630304207E126303081
:100A80004307E1262030E1264D30E1264930E126BA
:100A90004E30E1263D30E1262708C0002608BF0081
:100AA000102630304107E12630304207E126303051
:100AB0004307E126C625C625702A0230BC00000087
:100AC000000000000000BC0B5F2D00000800053096
:100AD000BC0000000000000000000000BC0B692DFD
:100AE0000000000000000000000008000B30BC0007
:100AF00000000000000000000000BC0B782D080082
:100B0000672576250800F930BC00000000000000D1
:100B100000000000BC0B852D000000000000080054
:100B20007C30BC0000000000000000000000BC0B96
:100B3000922D0000000000000800902583258325E9
:100B400008008325832583258325832508008325A5
:100B50008325832583258325832583258325832555
:100B600083250800C830BC00F930BD00000000003B
:100B70000000000000000000000000000000000075
:100B80000000BD0BBA2DBC0BB42D0800B225B22558
:100B90000800C101C201C3013E08C4000A3044027A
:100BA0000318D52D4408C30008000A30C402C20A45
:100BB0000A304202031DDD2DDE2DCE2DC10AC201F9
:100BC000CE2D4008C4000A3044020318002E440809
:100BD000C3070A3043020318EE2D0800C20A0A3088
:100BE000C3020A3042020319F62D0800C10AC201ED
:100BF0000A3041020319FD2D0800C50AC101080091
:100C00000A30C402C20A0A304202031DE32DC10A9F
:100C1000C2010A304102031DE32DC50AC101E32DC3
:100C2000C501C201C101C301BF08031D1B2EC008BD
:100C3000031DE125080001303F02031D262E06306A
:100C4000C3000530C2000230C100172E02303F023F
:100C5000031D312E0230C3000130C2000530C10037
:100C6000172E03303F02031D3C2E0830C300063010
:100C7000C2000730C100172E04303F02031D482E6A
:100C80000430C3000230C200C1010130C500172E7C
:100C900008001F15000000000000000000001F19E0
:100CA0004F2E1E08BF0083161E088312C0000800C6
:100CB000CF01D001D101C60803190800C708031DE0
:100CC000642EC808031908004708CF07031C6B2EC1
:100CD000D00A0318D10A50084807031C722ED0000E
:100CE000D10A732ED000C60B642E0800CE01CC01B1
:100CF000CD01CB08031D7F2ECA0803190800C908BF
:100D00000319080049084A02031C8D2E4908CA022B
:100D1000CC0ACC080319CD0A822ECB08031D932ED2
:100D20004A08CE000800CB034908CA02CC0ACC0806
:100D30000319CD0A822E8800091109148325091090
:100D40000800831603130911891009108801831202
:100D5000A7250911891030309B269D25091189107E
:100D600030309B2676250911891030309B260911D9
:100D7000891038309B260911891008309B260911EB
:100D8000891001309B260911891007309B26080025
:100D90000911891001309B260800091189100630BD
:100DA0009B2608000911891080309B260800091134
:100DB0008910C0309B260800091189100F309B262E
:100DC00008008800891009150914762509100911F1
:100DD0000800831203178D00031308008312031702
:100DE0008C0083168C130C1555308D00AA308D00A5
:100DF0008C148C18F92E0C110C128312031308009A
:100E0000831603178C130C14831603178C130C14FE
:100E10000C18082F831203170C0883120313080001
:100E2000B3000830B20087107625B30C03181A2FD0
:100E300087101B2F87147625B20B152F8714762564
:100E4000762508000830B2000718242F80250718DF
:100E50002B2F03102C2F0314B30C7625B20B272F46
:080E6000762576253308080011
:02400E00313F40
:00000001FF
